{"abi":[{"type":"constructor","inputs":[{"name":"_name","type":"string","internalType":"string"},{"name":"_symbol","type":"string","internalType":"string"},{"name":"_maxSupply","type":"uint256","internalType":"uint256"},{"name":"_baseURI","type":"string","internalType":"string"}],"stateMutability":"nonpayable"},{"type":"function","name":"approve","inputs":[{"name":"to","type":"address","internalType":"address"},{"name":"tokenId","type":"uint256","internalType":"uint256"}],"outputs":[],"stateMutability":"nonpayable"},{"type":"function","name":"balanceOf","inputs":[{"name":"owner","type":"address","internalType":"address"}],"outputs":[{"name":"","type":"uint256","internalType":"uint256"}],"stateMutability":"view"},{"type":"function","name":"baseURI","inputs":[],"outputs":[{"name":"","type":"string","internalType":"string"}],"stateMutability":"view"},{"type":"function","name":"getApproved","inputs":[{"name":"tokenId","type":"uint256","internalType":"uint256"}],"outputs":[{"name":"","type":"address","internalType":"address"}],"stateMutability":"view"},{"type":"function","name":"isApprovedForAll","inputs":[{"name":"owner","type":"address","internalType":"address"},{"name":"operator","type":"address","internalType":"address"}],"outputs":[{"name":"","type":"bool","internalType":"bool"}],"stateMutability":"view"},{"type":"function","name":"maxSupply","inputs":[],"outputs":[{"name":"","type":"uint256","internalType":"uint256"}],"stateMutability":"view"},{"type":"function","name":"mint","inputs":[{"name":"receiver","type":"address","internalType":"address"}],"outputs":[],"stateMutability":"nonpayable"},{"type":"function","name":"name","inputs":[],"outputs":[{"name":"","type":"string","internalType":"string"}],"stateMutability":"view"},{"type":"function","name":"owner","inputs":[],"outputs":[{"name":"","type":"address","internalType":"address"}],"stateMutability":"view"},{"type":"function","name":"ownerOf","inputs":[{"name":"tokenId","type":"uint256","internalType":"uint256"}],"outputs":[{"name":"","type":"address","internalType":"address"}],"stateMutability":"view"},{"type":"function","name":"renounceOwnership","inputs":[],"outputs":[],"stateMutability":"nonpayable"},{"type":"function","name":"safeTransferFrom","inputs":[{"name":"from","type":"address","internalType":"address"},{"name":"to","type":"address","internalType":"address"},{"name":"tokenId","type":"uint256","internalType":"uint256"}],"outputs":[],"stateMutability":"nonpayable"},{"type":"function","name":"safeTransferFrom","inputs":[{"name":"from","type":"address","internalType":"address"},{"name":"to","type":"address","internalType":"address"},{"name":"tokenId","type":"uint256","internalType":"uint256"},{"name":"data","type":"bytes","internalType":"bytes"}],"outputs":[],"stateMutability":"nonpayable"},{"type":"function","name":"setApprovalForAll","inputs":[{"name":"operator","type":"address","internalType":"address"},{"name":"approved","type":"bool","internalType":"bool"}],"outputs":[],"stateMutability":"nonpayable"},{"type":"function","name":"supportsInterface","inputs":[{"name":"interfaceId","type":"bytes4","internalType":"bytes4"}],"outputs":[{"name":"","type":"bool","internalType":"bool"}],"stateMutability":"view"},{"type":"function","name":"symbol","inputs":[],"outputs":[{"name":"","type":"string","internalType":"string"}],"stateMutability":"view"},{"type":"function","name":"tokenURI","inputs":[{"name":"tokenId","type":"uint256","internalType":"uint256"}],"outputs":[{"name":"","type":"string","internalType":"string"}],"stateMutability":"view"},{"type":"function","name":"totalSupply","inputs":[],"outputs":[{"name":"","type":"uint256","internalType":"uint256"}],"stateMutability":"view"},{"type":"function","name":"transferFrom","inputs":[{"name":"from","type":"address","internalType":"address"},{"name":"to","type":"address","internalType":"address"},{"name":"tokenId","type":"uint256","internalType":"uint256"}],"outputs":[],"stateMutability":"nonpayable"},{"type":"function","name":"transferOwnership","inputs":[{"name":"newOwner","type":"address","internalType":"address"}],"outputs":[],"stateMutability":"nonpayable"},{"type":"event","name":"Approval","inputs":[{"name":"owner","type":"address","indexed":true,"internalType":"address"},{"name":"approved","type":"address","indexed":true,"internalType":"address"},{"name":"tokenId","type":"uint256","indexed":true,"internalType":"uint256"}],"anonymous":false},{"type":"event","name":"ApprovalForAll","inputs":[{"name":"owner","type":"address","indexed":true,"internalType":"address"},{"name":"operator","type":"address","indexed":true,"internalType":"address"},{"name":"approved","type":"bool","indexed":false,"internalType":"bool"}],"anonymous":false},{"type":"event","name":"BatchMetadataUpdate","inputs":[{"name":"_fromTokenId","type":"uint256","indexed":false,"internalType":"uint256"},{"name":"_toTokenId","type":"uint256","indexed":false,"internalType":"uint256"}],"anonymous":false},{"type":"event","name":"MetadataUpdate","inputs":[{"name":"_tokenId","type":"uint256","indexed":false,"internalType":"uint256"}],"anonymous":false},{"type":"event","name":"OwnershipTransferred","inputs":[{"name":"previousOwner","type":"address","indexed":true,"internalType":"address"},{"name":"newOwner","type":"address","indexed":true,"internalType":"address"}],"anonymous":false},{"type":"event","name":"Transfer","inputs":[{"name":"from","type":"address","indexed":true,"internalType":"address"},{"name":"to","type":"address","indexed":true,"internalType":"address"},{"name":"tokenId","type":"uint256","indexed":true,"internalType":"uint256"}],"anonymous":false},{"type":"error","name":"ERC721IncorrectOwner","inputs":[{"name":"sender","type":"address","internalType":"address"},{"name":"tokenId","type":"uint256","internalType":"uint256"},{"name":"owner","type":"address","internalType":"address"}]},{"type":"error","name":"ERC721InsufficientApproval","inputs":[{"name":"operator","type":"address","internalType":"address"},{"name":"tokenId","type":"uint256","internalType":"uint256"}]},{"type":"error","name":"ERC721InvalidApprover","inputs":[{"name":"approver","type":"address","internalType":"address"}]},{"type":"error","name":"ERC721InvalidOperator","inputs":[{"name":"operator","type":"address","internalType":"address"}]},{"type":"error","name":"ERC721InvalidOwner","inputs":[{"name":"owner","type":"address","internalType":"address"}]},{"type":"error","name":"ERC721InvalidReceiver","inputs":[{"name":"receiver","type":"address","internalType":"address"}]},{"type":"error","name":"ERC721InvalidSender","inputs":[{"name":"sender","type":"address","internalType":"address"}]},{"type":"error","name":"ERC721NonexistentToken","inputs":[{"name":"tokenId","type":"uint256","internalType":"uint256"}]},{"type":"error","name":"OwnableInvalidOwner","inputs":[{"name":"owner","type":"address","internalType":"address"}]},{"type":"error","name":"OwnableUnauthorizedAccount","inputs":[{"name":"account","type":"address","internalType":"address"}]}],"bytecode":{"object":"0x608060405234801561000f575f5ffd5b5060405161171638038061171683398101604081905261002e9161018c565b3384845f61003c83826102a9565b50600161004982826102a9565b5050506001600160a01b03811661007957604051631e4fbdf760e01b81525f600482015260240160405180910390fd5b6100828161009e565b506008829055600a61009482826102a9565b5050505050610363565b600780546001600160a01b038381166001600160a01b0319831681179093556040519116919082907f8be0079c531659141344cd1fd0a4f28419497f9722a3daafe3b4186f6b6457e0905f90a35050565b634e487b7160e01b5f52604160045260245ffd5b5f82601f830112610112575f5ffd5b81516001600160401b0381111561012b5761012b6100ef565b604051601f8201601f19908116603f011681016001600160401b0381118282101715610159576101596100ef565b604052818152838201602001851015610170575f5ffd5b8160208501602083015e5f918101602001919091529392505050565b5f5f5f5f6080858703121561019f575f5ffd5b84516001600160401b038111156101b4575f5ffd5b6101c087828801610103565b602087015190955090506001600160401b038111156101dd575f5ffd5b6101e987828801610103565b60408701516060880151919550935090506001600160401b0381111561020d575f5ffd5b61021987828801610103565b91505092959194509250565b600181811c9082168061023957607f821691505b60208210810361025757634e487b7160e01b5f52602260045260245ffd5b50919050565b601f8211156102a457805f5260205f20601f840160051c810160208510156102825750805b601f840160051c820191505b818110156102a1575f815560010161028e565b50505b505050565b81516001600160401b038111156102c2576102c26100ef565b6102d6816102d08454610225565b8461025d565b6020601f821160018114610308575f83156102f15750848201515b5f19600385901b1c1916600184901b1784556102a1565b5f84815260208120601f198516915b828110156103375787850151825560209485019460019092019101610317565b508482101561035457868401515f19600387901b60f8161c191681555b50505050600190811b01905550565b6113a6806103705f395ff3fe608060405234801561000f575f5ffd5b5060043610610127575f3560e01c806370a08231116100a9578063b88d4fde1161006e578063b88d4fde14610255578063c87b56dd14610268578063d5abeb011461027b578063e985e9c514610284578063f2fde38b14610297575f5ffd5b806370a082311461020e578063715018a6146102215780638da5cb5b1461022957806395d89b411461023a578063a22cb46514610242575f5ffd5b806323b872dd116100ef57806323b872dd146101ba57806342842e0e146101cd5780636352211e146101e05780636a627842146101f35780636c0360eb14610206575f5ffd5b806301ffc9a71461012b57806306fdde0314610153578063081812fc14610168578063095ea7b31461019357806318160ddd146101a8575b5f5ffd5b61013e610139366004610ebf565b6102aa565b60405190151581526020015b60405180910390f35b61015b6102d4565b60405161014a9190610f0f565b61017b610176366004610f21565b610363565b6040516001600160a01b03909116815260200161014a565b6101a66101a1366004610f53565b61038a565b005b6009545b60405190815260200161014a565b6101a66101c8366004610f7b565b610399565b6101a66101db366004610f7b565b610427565b61017b6101ee366004610f21565b610446565b6101a6610201366004610fb5565b610450565b61015b6104f9565b6101ac61021c366004610fb5565b610585565b6101a66105ca565b6007546001600160a01b031661017b565b61015b6105dd565b6101a6610250366004610fce565b6105ec565b6101a661026336600461101b565b6105f7565b61015b610276366004610f21565b61060f565b6101ac60085481565b61013e6102923660046110f8565b610663565b6101a66102a5366004610fb5565b610690565b5f6001600160e01b03198216632483248360e11b14806102ce57506102ce826106cd565b92915050565b60605f80546102e290611129565b80601f016020809104026020016040519081016040528092919081815260200182805461030e90611129565b80156103595780601f1061033057610100808354040283529160200191610359565b820191905f5260205f20905b81548152906001019060200180831161033c57829003601f168201915b5050505050905090565b5f61036d8261071c565b505f828152600460205260409020546001600160a01b03166102ce565b610395828233610754565b5050565b6001600160a01b0382166103c757604051633250574960e11b81525f60048201526024015b60405180910390fd5b5f6103d3838333610761565b9050836001600160a01b0316816001600160a01b031614610421576040516364283d7b60e01b81526001600160a01b03808616600483015260248201849052821660448201526064016103be565b50505050565b61044183838360405180602001604052805f8152506105f7565b505050565b5f6102ce8261071c565b610458610853565b600854600954106104a05760405162461bcd60e51b815260206004820152601260248201527113585e081cdd5c1c1b1e481c995858da195960721b60448201526064016103be565b6009546104ad8282610880565b600160095f8282546104bf9190611161565b90915550610395905081600a6104d482610899565b6040516020016104e5929190611180565b604051602081830303815290604052610929565b600a805461050690611129565b80601f016020809104026020016040519081016040528092919081815260200182805461053290611129565b801561057d5780601f106105545761010080835404028352916020019161057d565b820191905f5260205f20905b81548152906001019060200180831161056057829003601f168201915b505050505081565b5f6001600160a01b0382166105af576040516322718ad960e21b81525f60048201526024016103be565b506001600160a01b03165f9081526003602052604090205490565b6105d2610853565b6105db5f610978565b565b6060600180546102e290611129565b6103953383836109c9565b610602848484610399565b6104213385858585610a67565b5f818152600260205260409020546060906001600160a01b0316610631575f5ffd5b600a61063c83610899565b60405160200161064d929190611180565b6040516020818303038152906040529050919050565b6001600160a01b039182165f90815260056020908152604080832093909416825291909152205460ff1690565b610698610853565b6001600160a01b0381166106c157604051631e4fbdf760e01b81525f60048201526024016103be565b6106ca81610978565b50565b5f6001600160e01b031982166380ac58cd60e01b14806106fd57506001600160e01b03198216635b5e139f60e01b145b806102ce57506301ffc9a760e01b6001600160e01b03198316146102ce565b5f818152600260205260408120546001600160a01b0316806102ce57604051637e27328960e01b8152600481018490526024016103be565b6104418383836001610b8f565b5f828152600260205260408120546001600160a01b039081169083161561078d5761078d818486610c93565b6001600160a01b038116156107c7576107a85f855f5f610b8f565b6001600160a01b0381165f90815260036020526040902080545f190190555b6001600160a01b038516156107f5576001600160a01b0385165f908152600360205260409020805460010190555b5f8481526002602052604080822080546001600160a01b0319166001600160a01b0389811691821790925591518793918516917fddf252ad1be2c89b69c2b068fc378daa952ba7f163c4a11628f55a4df523b3ef91a4949350505050565b6007546001600160a01b031633146105db5760405163118cdaa760e01b81523360048201526024016103be565b610395828260405180602001604052805f815250610cf7565b60605f6108a583610d0e565b60010190505f8167ffffffffffffffff8111156108c4576108c4611007565b6040519080825280601f01601f1916602001820160405280156108ee576020820181803683370190505b5090508181016020015b5f19016f181899199a1a9b1b9c1cb0b131b232b360811b600a86061a8153600a85049450846108f857509392505050565b5f828152600660205260409020610940828261125e565b506040518281527ff8e1a15aba9398e019f0b49df1a4fde98ee17ae345cb5f6b5e2c27f5033e8ce79060200160405180910390a15050565b600780546001600160a01b038381166001600160a01b0319831681179093556040519116919082907f8be0079c531659141344cd1fd0a4f28419497f9722a3daafe3b4186f6b6457e0905f90a35050565b6001600160a01b0382166109fb57604051630b61174360e31b81526001600160a01b03831660048201526024016103be565b6001600160a01b038381165f81815260056020908152604080832094871680845294825291829020805460ff191686151590811790915591519182527f17307eab39ab6107e8899845ad3d59bd9653f200f220920489ca2b5937696c31910160405180910390a3505050565b6001600160a01b0383163b15610b8857604051630a85bd0160e11b81526001600160a01b0384169063150b7a0290610aa9908890889087908790600401611319565b6020604051808303815f875af1925050508015610ae3575060408051601f3d908101601f19168201909252610ae091810190611355565b60015b610b4a573d808015610b10576040519150601f19603f3d011682016040523d82523d5f602084013e610b15565b606091505b5080515f03610b4257604051633250574960e11b81526001600160a01b03851660048201526024016103be565b805181602001fd5b6001600160e01b03198116630a85bd0160e11b14610b8657604051633250574960e11b81526001600160a01b03851660048201526024016103be565b505b5050505050565b8080610ba357506001600160a01b03821615155b15610c64575f610bb28461071c565b90506001600160a01b03831615801590610bde5750826001600160a01b0316816001600160a01b031614155b8015610bf15750610bef8184610663565b155b15610c1a5760405163a9fbf51f60e01b81526001600160a01b03841660048201526024016103be565b8115610c625783856001600160a01b0316826001600160a01b03167f8c5be1e5ebec7d5bd14f71427d1e84f3dd0314c0f7b2291e5b200ac8c7c3b92560405160405180910390a45b505b50505f90815260046020526040902080546001600160a01b0319166001600160a01b0392909216919091179055565b610c9e838383610de5565b610441576001600160a01b038316610ccc57604051637e27328960e01b8152600481018290526024016103be565b60405163177e802f60e01b81526001600160a01b0383166004820152602481018290526044016103be565b610d018383610e49565b610441335f858585610a67565b5f8072184f03e93ff9f4daa797ed6e38ed64bf6a1f0160401b8310610d4c5772184f03e93ff9f4daa797ed6e38ed64bf6a1f0160401b830492506040015b6d04ee2d6d415b85acef81000000008310610d78576d04ee2d6d415b85acef8100000000830492506020015b662386f26fc100008310610d9657662386f26fc10000830492506010015b6305f5e1008310610dae576305f5e100830492506008015b6127108310610dc257612710830492506004015b60648310610dd4576064830492506002015b600a83106102ce5760010192915050565b5f6001600160a01b03831615801590610e415750826001600160a01b0316846001600160a01b03161480610e1e5750610e1e8484610663565b80610e4157505f828152600460205260409020546001600160a01b038481169116145b949350505050565b6001600160a01b038216610e7257604051633250574960e11b81525f60048201526024016103be565b5f610e7e83835f610761565b90506001600160a01b03811615610441576040516339e3563760e11b81525f60048201526024016103be565b6001600160e01b0319811681146106ca575f5ffd5b5f60208284031215610ecf575f5ffd5b8135610eda81610eaa565b9392505050565b5f81518084528060208401602086015e5f602082860101526020601f19601f83011685010191505092915050565b602081525f610eda6020830184610ee1565b5f60208284031215610f31575f5ffd5b5035919050565b80356001600160a01b0381168114610f4e575f5ffd5b919050565b5f5f60408385031215610f64575f5ffd5b610f6d83610f38565b946020939093013593505050565b5f5f5f60608486031215610f8d575f5ffd5b610f9684610f38565b9250610fa460208501610f38565b929592945050506040919091013590565b5f60208284031215610fc5575f5ffd5b610eda82610f38565b5f5f60408385031215610fdf575f5ffd5b610fe883610f38565b915060208301358015158114610ffc575f5ffd5b809150509250929050565b634e487b7160e01b5f52604160045260245ffd5b5f5f5f5f6080858703121561102e575f5ffd5b61103785610f38565b935061104560208601610f38565b925060408501359150606085013567ffffffffffffffff811115611067575f5ffd5b8501601f81018713611077575f5ffd5b803567ffffffffffffffff81111561109157611091611007565b604051601f8201601f19908116603f0116810167ffffffffffffffff811182821017156110c0576110c0611007565b6040528181528282016020018910156110d7575f5ffd5b816020840160208301375f6020838301015280935050505092959194509250565b5f5f60408385031215611109575f5ffd5b61111283610f38565b915061112060208401610f38565b90509250929050565b600181811c9082168061113d57607f821691505b60208210810361115b57634e487b7160e01b5f52602260045260245ffd5b50919050565b808201808211156102ce57634e487b7160e01b5f52601160045260245ffd5b5f5f845461118d81611129565b6001821680156111a457600181146111b9576111e6565b60ff19831686528115158202860193506111e6565b875f5260205f205f5b838110156111de578154888201526001909101906020016111c2565b505081860193505b505050602f60f81b815283518060208601600184015e64173539b7b760d91b91016001810191825260060195945050505050565b601f82111561044157805f5260205f20601f840160051c8101602085101561123f5750805b601f840160051c820191505b81811015610b88575f815560010161124b565b815167ffffffffffffffff81111561127857611278611007565b61128c816112868454611129565b8461121a565b6020601f8211600181146112be575f83156112a75750848201515b5f19600385901b1c1916600184901b178455610b88565b5f84815260208120601f198516915b828110156112ed57878501518255602094850194600190920191016112cd565b508482101561130a57868401515f19600387901b60f8161c191681555b50505050600190811b01905550565b6001600160a01b03858116825284166020820152604081018390526080606082018190525f9061134b90830184610ee1565b9695505050505050565b5f60208284031215611365575f5ffd5b8151610eda81610eaa56fea26469706673582212206ebe53db1348baa6c8d6a387e59f9d0ea51cba0a262e40a43e81db8b3c7a2db664736f6c634300081c0033","linkReferences":{}},"methodIdentifiers":{"approve(address,uint256)":"095ea7b3","balanceOf(address)":"70a08231","baseURI()":"6c0360eb","getApproved(uint256)":"081812fc","isApprovedForAll(address,address)":"e985e9c5","maxSupply()":"d5abeb01","mint(address)":"6a627842","name()":"06fdde03","owner()":"8da5cb5b","ownerOf(uint256)":"6352211e","renounceOwnership()":"715018a6","safeTransferFrom(address,address,uint256)":"42842e0e","safeTransferFrom(address,address,uint256,bytes)":"b88d4fde","setApprovalForAll(address,bool)":"a22cb465","supportsInterface(bytes4)":"01ffc9a7","symbol()":"95d89b41","tokenURI(uint256)":"c87b56dd","totalSupply()":"18160ddd","transferFrom(address,address,uint256)":"23b872dd","transferOwnership(address)":"f2fde38b"},"id":45}