{"abi":[{"type":"constructor","inputs":[{"name":"biddingTime","type":"uint256","internalType":"uint256"},{"name":"beneficiaryAddress","type":"address","internalType":"address payable"}],"stateMutability":"nonpayable"},{"type":"function","name":"auctionEnd","inputs":[],"outputs":[],"stateMutability":"nonpayable"},{"type":"function","name":"auctionEndTime","inputs":[],"outputs":[{"name":"","type":"uint256","internalType":"uint256"}],"stateMutability":"view"},{"type":"function","name":"beneficiary","inputs":[],"outputs":[{"name":"","type":"address","internalType":"address payable"}],"stateMutability":"view"},{"type":"function","name":"bid","inputs":[],"outputs":[],"stateMutability":"payable"},{"type":"function","name":"ended","inputs":[],"outputs":[{"name":"","type":"bool","internalType":"bool"}],"stateMutability":"view"},{"type":"function","name":"getContractBalance","inputs":[],"outputs":[{"name":"","type":"uint256","internalType":"uint256"}],"stateMutability":"view"},{"type":"function","name":"getHighestBid","inputs":[],"outputs":[{"name":"","type":"uint256","internalType":"uint256"}],"stateMutability":"view"},{"type":"function","name":"getHighestBidder","inputs":[],"outputs":[{"name":"","type":"address","internalType":"address"}],"stateMutability":"view"},{"type":"function","name":"highestBid","inputs":[],"outputs":[{"name":"","type":"uint256","internalType":"uint256"}],"stateMutability":"view"},{"type":"function","name":"highestBidder","inputs":[],"outputs":[{"name":"","type":"address","internalType":"address"}],"stateMutability":"view"},{"type":"function","name":"withdraw","inputs":[],"outputs":[{"name":"","type":"bool","internalType":"bool"}],"stateMutability":"nonpayable"},{"type":"event","name":"AuctionEnded","inputs":[{"name":"winner","type":"address","indexed":false,"internalType":"address"},{"name":"amount","type":"uint256","indexed":false,"internalType":"uint256"}],"anonymous":false},{"type":"event","name":"HighestBidIncreased","inputs":[{"name":"bidder","type":"address","indexed":false,"internalType":"address"},{"name":"amount","type":"uint256","indexed":false,"internalType":"uint256"}],"anonymous":false},{"type":"error","name":"AuctionAlreadyEnded","inputs":[]},{"type":"error","name":"AuctionEndAlreadyCalled","inputs":[]},{"type":"error","name":"AuctionNotYetEnded","inputs":[]},{"type":"error","name":"BidNotHighEnough","inputs":[{"name":"highestBid","type":"uint256","internalType":"uint256"}]}],"bytecode":{"object":"0x60806040526005805460ff191690553480156018575f5ffd5b5060405161053b38038061053b8339810160408190526035916061565b5f80546001600160a01b0319166001600160a01b038316179055605782426099565b6001555060bd9050565b5f5f604083850312156071575f5ffd5b825160208401519092506001600160a01b0381168114608e575f5ffd5b809150509250929050565b8082018082111560b757634e487b7160e01b5f52601160045260245ffd5b92915050565b610471806100ca5f395ff3fe608060405260043610610099575f3560e01c80633ccfd60b116100625780633ccfd60b146101385780634979440a1461014c5780634b449cba1461016a5780636f9fb98a1461017f57806391f9015714610191578063d57bde79146101b0575f5ffd5b80623495a41461009d57806312fa6feb146100d35780631998aeef146100fc5780632a24f46c1461010657806338af3eed1461011a575b5f5ffd5b3480156100a8575f5ffd5b506002546001600160a01b03165b6040516001600160a01b0390911681526020015b60405180910390f35b3480156100de575f5ffd5b506005546100ec9060ff1681565b60405190151581526020016100ca565b6101046101c5565b005b348015610111575f5ffd5b506101046102aa565b348015610125575f5ffd5b505f546100b6906001600160a01b031681565b348015610143575f5ffd5b506100ec610383565b348015610157575f5ffd5b506003545b6040519081526020016100ca565b348015610175575f5ffd5b5061015c60015481565b34801561018a575f5ffd5b504761015c565b34801561019c575f5ffd5b506002546100b6906001600160a01b031681565b3480156101bb575f5ffd5b5061015c60035481565b6001544211156101e85760405163d02e774d60e01b815260040160405180910390fd5b600354341161021957600354604051634e12c1bb60e01b815260040161021091815260200190565b60405180910390fd5b60035415610253576003546002546001600160a01b03165f908152600460205260408120805490919061024d908490610416565b90915550505b600280546001600160a01b031916339081179091553460038190556040805192835260208301919091527ff4757a49b326036464bec6fe419a4ae38c8a02ce3e68bf0809674f6aab8ad300910160405180910390a1565b6001544210156102cd5760405163044cee2960e41b815260040160405180910390fd5b60055460ff16156102f157604051630c39fb9f60e31b815260040160405180910390fd5b6005805460ff19166001179055600254600354604080516001600160a01b03909316835260208301919091527fdaec4582d5d9595688c8c98545fdd1c696d41c6aeaeb636737e84ed2f5c00eda910160405180910390a15f80546003546040516001600160a01b039092169281156108fc029290818181858888f19350505050158015610380573d5f5f3e3d5ffd5b50565b335f90815260046020526040812054801561040e57335f818152600460205260408082208290555190919083908381818185875af1925050503d805f81146103e6576040519150601f19603f3d011682016040523d82523d5f602084013e6103eb565b606091505b505090508061040c5750335f90815260046020526040812091909155919050565b505b600191505090565b8082018082111561043557634e487b7160e01b5f52601160045260245ffd5b9291505056fea2646970667358221220f97bb188a7c26a25128ce4a18557d75b5c7cf58350d023c17c9cc9bc242b6a7064736f6c634300081c0033","linkReferences":{}},"methodIdentifiers":{"auctionEnd()":"2a24f46c","auctionEndTime()":"4b449cba","beneficiary()":"38af3eed","bid()":"1998aeef","ended()":"12fa6feb","getContractBalance()":"6f9fb98a","getHighestBid()":"4979440a","getHighestBidder()":"003495a4","highestBid()":"d57bde79","highestBidder()":"91f90157","withdraw()":"3ccfd60b"},"id":43}