{"abi":[{"type":"constructor","inputs":[{"name":"_ownerCutPerMillion","type":"uint256","internalType":"uint256"}],"stateMutability":"nonpayable"},{"type":"function","name":"bidOnAuction","inputs":[{"name":"nftAddress","type":"address","internalType":"address"},{"name":"assetId","type":"uint256","internalType":"uint256"}],"outputs":[],"stateMutability":"payable"},{"type":"function","name":"cancelOrder","inputs":[{"name":"nftAddress","type":"address","internalType":"address"},{"name":"assetId","type":"uint256","internalType":"uint256"}],"outputs":[],"stateMutability":"nonpayable"},{"type":"function","name":"createAuction","inputs":[{"name":"nftAddress","type":"address","internalType":"address"},{"name":"assetId","type":"uint256","internalType":"uint256"},{"name":"biddingTime","type":"uint256","internalType":"uint256"}],"outputs":[],"stateMutability":"nonpayable"},{"type":"function","name":"createNFT","inputs":[{"name":"isFixedSupply","type":"bool","internalType":"bool"},{"name":"creator","type":"address","internalType":"address"},{"name":"name","type":"string","internalType":"string"},{"name":"symbol","type":"string","internalType":"string"},{"name":"maxSupply","type":"uint256","internalType":"uint256"},{"name":"baseURI","type":"string","internalType":"string"}],"outputs":[],"stateMutability":"nonpayable"},{"type":"function","name":"createOrder","inputs":[{"name":"nftAddress","type":"address","internalType":"address"},{"name":"assetId","type":"uint256","internalType":"uint256"},{"name":"priceInWei","type":"uint256","internalType":"uint256"},{"name":"expiresAt","type":"uint256","internalType":"uint256"}],"outputs":[],"stateMutability":"payable"},{"type":"function","name":"endAuction","inputs":[{"name":"nftAddress","type":"address","internalType":"address"},{"name":"assetId","type":"uint256","internalType":"uint256"}],"outputs":[],"stateMutability":"nonpayable"},{"type":"function","name":"executeOrder","inputs":[{"name":"nftAddress","type":"address","internalType":"address"},{"name":"assetId","type":"uint256","internalType":"uint256"}],"outputs":[],"stateMutability":"payable"},{"type":"function","name":"nftAuctions","inputs":[{"name":"","type":"address","internalType":"address"},{"name":"","type":"uint256","internalType":"uint256"}],"outputs":[{"name":"","type":"address","internalType":"contract Auction"}],"stateMutability":"view"},{"type":"function","name":"nftOrders","inputs":[{"name":"","type":"address","internalType":"address"},{"name":"","type":"uint256","internalType":"uint256"}],"outputs":[{"name":"seller","type":"address","internalType":"address"},{"name":"price","type":"uint256","internalType":"uint256"},{"name":"expiresAt","type":"uint256","internalType":"uint256"}],"stateMutability":"view"},{"type":"function","name":"owner","inputs":[],"outputs":[{"name":"","type":"address","internalType":"address"}],"stateMutability":"view"},{"type":"function","name":"ownerCutPerMillion","inputs":[],"outputs":[{"name":"","type":"uint256","internalType":"uint256"}],"stateMutability":"view"},{"type":"function","name":"paused","inputs":[],"outputs":[{"name":"","type":"bool","internalType":"bool"}],"stateMutability":"view"},{"type":"function","name":"publicationFeeInWei","inputs":[],"outputs":[{"name":"","type":"uint256","internalType":"uint256"}],"stateMutability":"view"},{"type":"function","name":"renounceOwnership","inputs":[],"outputs":[],"stateMutability":"nonpayable"},{"type":"function","name":"setPublicationFee","inputs":[{"name":"_publicationFee","type":"uint256","internalType":"uint256"}],"outputs":[],"stateMutability":"nonpayable"},{"type":"function","name":"transferOwnership","inputs":[{"name":"newOwner","type":"address","internalType":"address"}],"outputs":[],"stateMutability":"nonpayable"},{"type":"function","name":"withdrawBid","inputs":[{"name":"nftAddress","type":"address","internalType":"address"},{"name":"assetId","type":"uint256","internalType":"uint256"}],"outputs":[],"stateMutability":"nonpayable"},{"type":"event","name":"AuctionCreated","inputs":[{"name":"seller","type":"address","indexed":true,"internalType":"address"},{"name":"nftAddress","type":"address","indexed":true,"internalType":"address"},{"name":"assetId","type":"uint256","indexed":true,"internalType":"uint256"},{"name":"auctionEndTime","type":"uint256","indexed":false,"internalType":"uint256"}],"anonymous":false},{"type":"event","name":"AuctionEnded","inputs":[{"name":"winner","type":"address","indexed":true,"internalType":"address"},{"name":"amount","type":"uint256","indexed":false,"internalType":"uint256"}],"anonymous":false},{"type":"event","name":"OrderCancelled","inputs":[{"name":"seller","type":"address","indexed":true,"internalType":"address"},{"name":"nftAddress","type":"address","indexed":true,"internalType":"address"},{"name":"assetId","type":"uint256","indexed":true,"internalType":"uint256"}],"anonymous":false},{"type":"event","name":"OrderCreated","inputs":[{"name":"seller","type":"address","indexed":true,"internalType":"address"},{"name":"nftAddress","type":"address","indexed":true,"internalType":"address"},{"name":"assetId","type":"uint256","indexed":true,"internalType":"uint256"},{"name":"priceInWei","type":"uint256","indexed":false,"internalType":"uint256"},{"name":"expiresAt","type":"uint256","indexed":false,"internalType":"uint256"}],"anonymous":false},{"type":"event","name":"OrderSuccessful","inputs":[{"name":"buyer","type":"address","indexed":true,"internalType":"address"},{"name":"nftAddress","type":"address","indexed":true,"internalType":"address"},{"name":"assetId","type":"uint256","indexed":true,"internalType":"uint256"},{"name":"price","type":"uint256","indexed":false,"internalType":"uint256"}],"anonymous":false},{"type":"event","name":"OwnershipTransferred","inputs":[{"name":"previousOwner","type":"address","indexed":true,"internalType":"address"},{"name":"newOwner","type":"address","indexed":true,"internalType":"address"}],"anonymous":false},{"type":"event","name":"Paused","inputs":[{"name":"account","type":"address","indexed":false,"internalType":"address"}],"anonymous":false},{"type":"event","name":"Unpaused","inputs":[{"name":"account","type":"address","indexed":false,"internalType":"address"}],"anonymous":false},{"type":"error","name":"AuctionAlreadyEnded","inputs":[]},{"type":"error","name":"AuctionEndAlreadyCalled","inputs":[]},{"type":"error","name":"AuctionNotYetEnded","inputs":[]},{"type":"error","name":"BidNotHighEnough","inputs":[{"name":"highestBid","type":"uint256","internalType":"uint256"}]},{"type":"error","name":"EnforcedPause","inputs":[]},{"type":"error","name":"ExpectedPause","inputs":[]},{"type":"error","name":"OwnableInvalidOwner","inputs":[{"name":"owner","type":"address","internalType":"address"}]},{"type":"error","name":"OwnableUnauthorizedAccount","inputs":[{"name":"account","type":"address","internalType":"address"}]}],"bytecode":{"object":"0x6080604052348015600e575f5ffd5b50604051614590380380614590833981016040819052602b9160b9565b3380604f57604051631e4fbdf760e01b81525f600482015260240160405180910390fd5b605681606a565b505f805460ff60a01b1916905560015560cf565b5f80546001600160a01b038381166001600160a01b0319831681178455604051919092169283917f8be0079c531659141344cd1fd0a4f28419497f9722a3daafe3b4186f6b6457e09190a35050565b5f6020828403121560c8575f5ffd5b5051919050565b6144b4806100dc5f395ff3fe6080604052600436106100fa575f3560e01c80638da5cb5b11610092578063af8996f111610062578063af8996f11461028e578063cfc1f917146102ad578063d76ec2b7146102cc578063dc3528d614610340578063f2fde38b14610353575f5ffd5b80638da5cb5b1461021b578063a01f79d414610237578063abb940511461025a578063ae4f119814610279575f5ffd5b80636f652e1a116100cd5780636f652e1a1461017e578063715018a6146101915780637dc409b5146101a557806388cedbc4146101fc575f5ffd5b80630890b90c146100fe5780634cb8ef5b146101135780635c975abb146101325780636a2061371461015f575b5f5ffd5b61011161010c366004610f55565b610372565b005b34801561011e575f5ffd5b5061011161012d366004610f55565b6103f1565b34801561013d575f5ffd5b505f54600160a01b900460ff1660405190151581526020015b60405180910390f35b34801561016a575f5ffd5b50610111610179366004610f55565b6104c7565b61011161018c366004610f7f565b6105d5565b34801561019c575f5ffd5b5061011161093f565b3480156101b0575f5ffd5b506101e46101bf366004610f55565b600360209081525f92835260408084209091529082529020546001600160a01b031681565b6040516001600160a01b039091168152602001610156565b348015610207575f5ffd5b50610111610216366004610f55565b610952565b348015610226575f5ffd5b505f546001600160a01b03166101e4565b348015610242575f5ffd5b5061024c60015481565b604051908152602001610156565b348015610265575f5ffd5b50610111610274366004610fb7565b610a7b565b348015610284575f5ffd5b5061024c60025481565b348015610299575f5ffd5b506101116102a8366004610fe9565b610b41565b3480156102b8575f5ffd5b506101116102c73660046110ac565b610b4e565b3480156102d7575f5ffd5b5061031b6102e6366004610f55565b600460209081525f92835260408084209091529082529020805460018201546002909201546001600160a01b03909116919083565b604080516001600160a01b039094168452602084019290925290820152606001610156565b61011161034e366004610f55565b610be6565b34801561035e575f5ffd5b5061011161036d366004611167565b610e38565b61037a610e75565b6001600160a01b038083165f908152600360209081526040808320858452909152808220548151631998aeef60e01b815291519316928392631998aeef9234926004808301939282900301818588803b1580156103d5575f5ffd5b505af11580156103e7573d5f5f3e3d5ffd5b5050505050505050565b6103f9610e75565b6001600160a01b038083165f9081526003602090815260408083208584528252808320548151633ccfd60b60e01b815291519416938492633ccfd60b9260048082019391829003018187875af1158015610455573d5f5f3e3d5ffd5b505050506040513d601f19601f820116820180604052508101906104799190611189565b9050806104c15760405162461bcd60e51b815260206004820152601160248201527015da5d1a191c985dd85b0819985a5b1959607a1b60448201526064015b60405180910390fd5b50505050565b6104cf610e75565b6001600160a01b038083165f90815260046020908152604080832085845282529182902082516060810184528154909416808552600182015492850192909252600201549183019190915233146105685760405162461bcd60e51b815260206004820152601d60248201527f54686973204e4654206973206e6f74206c697374656420627920796f7500000060448201526064016104b8565b6001600160a01b0383165f81815260046020908152604080832086845290915280822080546001600160a01b0319168155600181018390556002018290555184929133917fd23ac4476ccf3eeb78c76d4b7bb113597bcd16c15d47656627ea6221d685ad739190a4505050565b6105dd610e75565b6040516331a9108f60e11b815260048101849052849033906001600160a01b03831690636352211e90602401602060405180830381865afa158015610624573d5f5f3e3d5ffd5b505050506040513d601f19601f8201168201806040525081019061064891906111a4565b6001600160a01b0316146106a85760405162461bcd60e51b815260206004820152602160248201527f596f7520617265206e6f7420746865206f776e6572206f662074686973204e466044820152601560fa1b60648201526084016104b8565b60405163e985e9c560e01b81523360048201523060248201526001600160a01b0382169063e985e9c590604401602060405180830381865afa1580156106f0573d5f5f3e3d5ffd5b505050506040513d601f19601f820116820180604052508101906107149190611189565b6107765760405162461bcd60e51b815260206004820152602d60248201527f4d61726b6574706c616365206e6f7420617070726f76656420746f207472616e60448201526c1cd9995c881d1a1a5cc8139195609a1b60648201526084016104b8565b4282116107c55760405162461bcd60e51b815260206004820152601760248201527f496e76616c69642065787069726174696f6e2074696d6500000000000000000060448201526064016104b8565b5f83116108145760405162461bcd60e51b815260206004820152601f60248201527f5072696365206d7573742062652067726561746572207468616e207a65726f0060448201526064016104b8565b6002543410156108665760405162461bcd60e51b815260206004820152601c60248201527f496e73756666696369656e74207075626c69636174696f6e206665650000000060448201526064016104b8565b5f80546002546040516001600160a01b039092169281156108fc029290818181858888f1935050505015801561089e573d5f5f3e3d5ffd5b50604080516060810182523380825260208083018781528385018781526001600160a01b038b81165f818152600486528881208d82528652889020965187546001600160a01b03191692169190911786559151600186015551600290940193909355835187815290810186905287937fe43c7a25359805ec97a99d788eab6bc01d5ead3a30a6d0d4998533e9cc53e230910160405180910390a45050505050565b610947610e9f565b6109505f610ecb565b565b61095a610e75565b6001600160a01b038083165f908152600360209081526040808320858452909152808220548151630a893d1b60e21b815291519316928392632a24f46c926004808201939182900301818387803b1580156109b3575f5ffd5b505af11580156109c5573d5f5f3e3d5ffd5b505050505f816001600160a01b03166391f901576040518163ffffffff1660e01b8152600401602060405180830381865afa158015610a06573d5f5f3e3d5ffd5b505050506040513d601f19601f82011682018060405250810190610a2a91906111a4565b604051632142170760e11b81523360048201526001600160a01b03808316602483015260448201869052919250908516906342842e0e906064015f604051808303815f87803b1580156103d5575f5ffd5b610a83610e75565b5f8133604051610a9290610f1a565b9182526001600160a01b03166020820152604001604051809103905ff080158015610abf573d5f5f3e3d5ffd5b506001600160a01b038581165f818152600360209081526040808320898452909152902080546001600160a01b031916928416929092179091559091508390337fae654d602733e5af7f01c9bdc66adeb293b7a3c878db8d567c544e89397d2fb5610b2a86426111bf565b60405190815260200160405180910390a450505050565b610b49610e9f565b600255565b610b56610e9f565b610b5e610e75565b5f8615610ba35784848484604051610b7590610f27565b610b829493929190611212565b604051809103905ff080158015610b9b573d5f5f3e3d5ffd5b509050610bdd565b84848484604051610bb390610f34565b610bc09493929190611212565b604051809103905ff080158015610bd9573d5f5f3e3d5ffd5b5090505b50505050505050565b610bee610e75565b6001600160a01b038083165f908152600460209081526040808320858452825291829020825160608101845281549094168085526001820154928501929092526002015491830191909152339003610c885760405162461bcd60e51b815260206004820152601f60248201527f53656c6c65722063616e6e6f7420627579207468656972206f776e204e46540060448201526064016104b8565b80516001600160a01b0316610cdf5760405162461bcd60e51b815260206004820152601f60248201527f54686973204e4654206973206e6f74206c697374656420666f722073616c650060448201526064016104b8565b8060200151341015610d245760405162461bcd60e51b815260206004820152600e60248201526d14185e5b595b9d0819985a5b195960921b60448201526064016104b8565b80516040516001600160a01b03909116903480156108fc02915f818181858888f19350505050158015610d59573d5f5f3e3d5ffd5b508051604051632142170760e11b81526001600160a01b03918216600482015233602482015260448101849052908416906342842e0e906064015f604051808303815f87803b158015610daa575f5ffd5b505af1158015610dbc573d5f5f3e3d5ffd5b505050506001600160a01b0383165f818152600460209081526040808320868452825280832080546001600160a01b03191681556001810184905560020192909255905134815284929133917f47376e670cfbb665460d0f3dee95c3d99f19e890c257978f06d7fe6877cdedc1910160405180910390a4505050565b610e40610e9f565b6001600160a01b038116610e6957604051631e4fbdf760e01b81525f60048201526024016104b8565b610e7281610ecb565b50565b5f54600160a01b900460ff16156109505760405163d93c066560e01b815260040160405180910390fd5b5f546001600160a01b031633146109505760405163118cdaa760e01b81523360048201526024016104b8565b5f80546001600160a01b038381166001600160a01b0319831681178455604051919092169283917f8be0079c531659141344cd1fd0a4f28419497f9722a3daafe3b4186f6b6457e09190a35050565b61053b8061125c83390190565b6115d28061179783390190565b61171680612d6983390190565b6001600160a01b0381168114610e72575f5ffd5b5f5f60408385031215610f66575f5ffd5b8235610f7181610f41565b946020939093013593505050565b5f5f5f5f60808587031215610f92575f5ffd5b8435610f9d81610f41565b966020860135965060408601359560600135945092505050565b5f5f5f60608486031215610fc9575f5ffd5b8335610fd481610f41565b95602085013595506040909401359392505050565b5f60208284031215610ff9575f5ffd5b5035919050565b8015158114610e72575f5ffd5b634e487b7160e01b5f52604160045260245ffd5b5f82601f830112611030575f5ffd5b813567ffffffffffffffff81111561104a5761104a61100d565b604051601f8201601f19908116603f0116810167ffffffffffffffff811182821017156110795761107961100d565b604052818152838201602001851015611090575f5ffd5b816020850160208301375f918101602001919091529392505050565b5f5f5f5f5f5f60c087890312156110c1575f5ffd5b86356110cc81611000565b955060208701356110dc81610f41565b9450604087013567ffffffffffffffff8111156110f7575f5ffd5b61110389828a01611021565b945050606087013567ffffffffffffffff81111561111f575f5ffd5b61112b89828a01611021565b9350506080870135915060a087013567ffffffffffffffff81111561114e575f5ffd5b61115a89828a01611021565b9150509295509295509295565b5f60208284031215611177575f5ffd5b813561118281610f41565b9392505050565b5f60208284031215611199575f5ffd5b815161118281611000565b5f602082840312156111b4575f5ffd5b815161118281610f41565b808201808211156111de57634e487b7160e01b5f52601160045260245ffd5b92915050565b5f81518084528060208401602086015e5f602082860101526020601f19601f83011685010191505092915050565b608081525f61122460808301876111e4565b828103602084015261123681876111e4565b9050846040840152828103606084015261125081856111e4565b97965050505050505056fe60806040526005805460ff191690553480156018575f5ffd5b5060405161053b38038061053b8339810160408190526035916061565b5f80546001600160a01b0319166001600160a01b038316179055605782426099565b6001555060bd9050565b5f5f604083850312156071575f5ffd5b825160208401519092506001600160a01b0381168114608e575f5ffd5b809150509250929050565b8082018082111560b757634e487b7160e01b5f52601160045260245ffd5b92915050565b610471806100ca5f395ff3fe608060405260043610610099575f3560e01c80633ccfd60b116100625780633ccfd60b146101385780634979440a1461014c5780634b449cba1461016a5780636f9fb98a1461017f57806391f9015714610191578063d57bde79146101b0575f5ffd5b80623495a41461009d57806312fa6feb146100d35780631998aeef146100fc5780632a24f46c1461010657806338af3eed1461011a575b5f5ffd5b3480156100a8575f5ffd5b506002546001600160a01b03165b6040516001600160a01b0390911681526020015b60405180910390f35b3480156100de575f5ffd5b506005546100ec9060ff1681565b60405190151581526020016100ca565b6101046101c5565b005b348015610111575f5ffd5b506101046102aa565b348015610125575f5ffd5b505f546100b6906001600160a01b031681565b348015610143575f5ffd5b506100ec610383565b348015610157575f5ffd5b506003545b6040519081526020016100ca565b348015610175575f5ffd5b5061015c60015481565b34801561018a575f5ffd5b504761015c565b34801561019c575f5ffd5b506002546100b6906001600160a01b031681565b3480156101bb575f5ffd5b5061015c60035481565b6001544211156101e85760405163d02e774d60e01b815260040160405180910390fd5b600354341161021957600354604051634e12c1bb60e01b815260040161021091815260200190565b60405180910390fd5b60035415610253576003546002546001600160a01b03165f908152600460205260408120805490919061024d908490610416565b90915550505b600280546001600160a01b031916339081179091553460038190556040805192835260208301919091527ff4757a49b326036464bec6fe419a4ae38c8a02ce3e68bf0809674f6aab8ad300910160405180910390a1565b6001544210156102cd5760405163044cee2960e41b815260040160405180910390fd5b60055460ff16156102f157604051630c39fb9f60e31b815260040160405180910390fd5b6005805460ff19166001179055600254600354604080516001600160a01b03909316835260208301919091527fdaec4582d5d9595688c8c98545fdd1c696d41c6aeaeb636737e84ed2f5c00eda910160405180910390a15f80546003546040516001600160a01b039092169281156108fc029290818181858888f19350505050158015610380573d5f5f3e3d5ffd5b50565b335f90815260046020526040812054801561040e57335f818152600460205260408082208290555190919083908381818185875af1925050503d805f81146103e6576040519150601f19603f3d011682016040523d82523d5f602084013e6103eb565b606091505b505090508061040c5750335f90815260046020526040812091909155919050565b505b600191505090565b8082018082111561043557634e487b7160e01b5f52601160045260245ffd5b9291505056fea2646970667358221220f97bb188a7c26a25128ce4a18557d75b5c7cf58350d023c17c9cc9bc242b6a7064736f6c634300081c0033608060405234801561000f575f5ffd5b506040516115d23803806115d283398101604081905261002e9161018c565b3384845f61003c83826102a9565b50600161004982826102a9565b5050506001600160a01b03811661007957604051631e4fbdf760e01b81525f600482015260240160405180910390fd5b6100828161009e565b506008829055600a61009482826102a9565b5050505050610363565b600780546001600160a01b038381166001600160a01b0319831681179093556040519116919082907f8be0079c531659141344cd1fd0a4f28419497f9722a3daafe3b4186f6b6457e0905f90a35050565b634e487b7160e01b5f52604160045260245ffd5b5f82601f830112610112575f5ffd5b81516001600160401b0381111561012b5761012b6100ef565b604051601f8201601f19908116603f011681016001600160401b0381118282101715610159576101596100ef565b604052818152838201602001851015610170575f5ffd5b8160208501602083015e5f918101602001919091529392505050565b5f5f5f5f6080858703121561019f575f5ffd5b84516001600160401b038111156101b4575f5ffd5b6101c087828801610103565b602087015190955090506001600160401b038111156101dd575f5ffd5b6101e987828801610103565b60408701516060880151919550935090506001600160401b0381111561020d575f5ffd5b61021987828801610103565b91505092959194509250565b600181811c9082168061023957607f821691505b60208210810361025757634e487b7160e01b5f52602260045260245ffd5b50919050565b601f8211156102a457805f5260205f20601f840160051c810160208510156102825750805b601f840160051c820191505b818110156102a1575f815560010161028e565b50505b505050565b81516001600160401b038111156102c2576102c26100ef565b6102d6816102d08454610225565b8461025d565b6020601f821160018114610308575f83156102f15750848201515b5f19600385901b1c1916600184901b1784556102a1565b5f84815260208120601f198516915b828110156103375787850151825560209485019460019092019101610317565b508482101561035457868401515f19600387901b60f8161c191681555b50505050600190811b01905550565b611262806103705f395ff3fe608060405234801561000f575f5ffd5b5060043610610127575f3560e01c806370a08231116100a9578063b88d4fde1161006e578063b88d4fde14610255578063c87b56dd14610268578063d5abeb011461027b578063e985e9c514610284578063f2fde38b14610297575f5ffd5b806370a082311461020e578063715018a6146102215780638da5cb5b1461022957806395d89b411461023a578063a22cb46514610242575f5ffd5b806323b872dd116100ef57806323b872dd146101ba57806342842e0e146101cd5780636352211e146101e05780636a627842146101f35780636c0360eb14610206575f5ffd5b806301ffc9a71461012b57806306fdde0314610153578063081812fc14610168578063095ea7b31461019357806318160ddd146101a8575b5f5ffd5b61013e610139366004610e15565b6102aa565b60405190151581526020015b60405180910390f35b61015b6102d4565b60405161014a9190610e65565b61017b610176366004610e77565b610363565b6040516001600160a01b03909116815260200161014a565b6101a66101a1366004610ea9565b61038a565b005b6009545b60405190815260200161014a565b6101a66101c8366004610ed1565b610399565b6101a66101db366004610ed1565b610427565b61017b6101ee366004610e77565b610446565b6101a6610201366004610f0b565b610450565b61015b610558565b6101ac61021c366004610f0b565b6105e4565b6101a6610629565b6007546001600160a01b031661017b565b61015b61063c565b6101a6610250366004610f24565b61064b565b6101a6610263366004610f71565b610656565b61015b610276366004610e77565b61066e565b6101ac60085481565b61013e61029236600461104e565b610720565b6101a66102a5366004610f0b565b61074d565b5f6001600160e01b03198216632483248360e11b14806102ce57506102ce8261078a565b92915050565b60605f80546102e29061107f565b80601f016020809104026020016040519081016040528092919081815260200182805461030e9061107f565b80156103595780601f1061033057610100808354040283529160200191610359565b820191905f5260205f20905b81548152906001019060200180831161033c57829003601f168201915b5050505050905090565b5f61036d826107d9565b505f828152600460205260409020546001600160a01b03166102ce565b610395828233610811565b5050565b6001600160a01b0382166103c757604051633250574960e11b81525f60048201526024015b60405180910390fd5b5f6103d383833361081e565b9050836001600160a01b0316816001600160a01b031614610421576040516364283d7b60e01b81526001600160a01b03808616600483015260248201849052821660448201526064016103be565b50505050565b61044183838360405180602001604052805f815250610656565b505050565b5f6102ce826107d9565b610458610910565b600854600954106104a05760405162461bcd60e51b815260206004820152601260248201527113585e081cdd5c1c1b1e481c995858da195960721b60448201526064016103be565b6009546104ad828261093d565b600160095f8282546104bf91906110b7565b9250508190555061039581600a80546104d79061107f565b80601f01602080910402602001604051908101604052809291908181526020018280546105039061107f565b801561054e5780601f106105255761010080835404028352916020019161054e565b820191905f5260205f20905b81548152906001019060200180831161053157829003601f168201915b5050505050610956565b600a80546105659061107f565b80601f01602080910402602001604051908101604052809291908181526020018280546105919061107f565b80156105dc5780601f106105b3576101008083540402835291602001916105dc565b820191905f5260205f20905b8154815290600101906020018083116105bf57829003601f168201915b505050505081565b5f6001600160a01b03821661060e576040516322718ad960e21b81525f60048201526024016103be565b506001600160a01b03165f9081526003602052604090205490565b610631610910565b61063a5f6109a5565b565b6060600180546102e29061107f565b6103953383836109f6565b610661848484610399565b6104213385858585610a94565b5f818152600260205260409020546060906001600160a01b0316610690575f5ffd5b600a805461069d9061107f565b80601f01602080910402602001604051908101604052809291908181526020018280546106c99061107f565b80156107145780601f106106eb57610100808354040283529160200191610714565b820191905f5260205f20905b8154815290600101906020018083116106f757829003601f168201915b50505050509050919050565b6001600160a01b039182165f90815260056020908152604080832093909416825291909152205460ff1690565b610755610910565b6001600160a01b03811661077e57604051631e4fbdf760e01b81525f60048201526024016103be565b610787816109a5565b50565b5f6001600160e01b031982166380ac58cd60e01b14806107ba57506001600160e01b03198216635b5e139f60e01b145b806102ce57506301ffc9a760e01b6001600160e01b03198316146102ce565b5f818152600260205260408120546001600160a01b0316806102ce57604051637e27328960e01b8152600481018490526024016103be565b6104418383836001610bbc565b5f828152600260205260408120546001600160a01b039081169083161561084a5761084a818486610cc0565b6001600160a01b03811615610884576108655f855f5f610bbc565b6001600160a01b0381165f90815260036020526040902080545f190190555b6001600160a01b038516156108b2576001600160a01b0385165f908152600360205260409020805460010190555b5f8481526002602052604080822080546001600160a01b0319166001600160a01b0389811691821790925591518793918516917fddf252ad1be2c89b69c2b068fc378daa952ba7f163c4a11628f55a4df523b3ef91a4949350505050565b6007546001600160a01b0316331461063a5760405163118cdaa760e01b81523360048201526024016103be565b610395828260405180602001604052805f815250610d24565b5f82815260066020526040902061096d828261111a565b506040518281527ff8e1a15aba9398e019f0b49df1a4fde98ee17ae345cb5f6b5e2c27f5033e8ce79060200160405180910390a15050565b600780546001600160a01b038381166001600160a01b0319831681179093556040519116919082907f8be0079c531659141344cd1fd0a4f28419497f9722a3daafe3b4186f6b6457e0905f90a35050565b6001600160a01b038216610a2857604051630b61174360e31b81526001600160a01b03831660048201526024016103be565b6001600160a01b038381165f81815260056020908152604080832094871680845294825291829020805460ff191686151590811790915591519182527f17307eab39ab6107e8899845ad3d59bd9653f200f220920489ca2b5937696c31910160405180910390a3505050565b6001600160a01b0383163b15610bb557604051630a85bd0160e11b81526001600160a01b0384169063150b7a0290610ad69088908890879087906004016111d5565b6020604051808303815f875af1925050508015610b10575060408051601f3d908101601f19168201909252610b0d91810190611211565b60015b610b77573d808015610b3d576040519150601f19603f3d011682016040523d82523d5f602084013e610b42565b606091505b5080515f03610b6f57604051633250574960e11b81526001600160a01b03851660048201526024016103be565b805181602001fd5b6001600160e01b03198116630a85bd0160e11b14610bb357604051633250574960e11b81526001600160a01b03851660048201526024016103be565b505b5050505050565b8080610bd057506001600160a01b03821615155b15610c91575f610bdf846107d9565b90506001600160a01b03831615801590610c0b5750826001600160a01b0316816001600160a01b031614155b8015610c1e5750610c1c8184610720565b155b15610c475760405163a9fbf51f60e01b81526001600160a01b03841660048201526024016103be565b8115610c8f5783856001600160a01b0316826001600160a01b03167f8c5be1e5ebec7d5bd14f71427d1e84f3dd0314c0f7b2291e5b200ac8c7c3b92560405160405180910390a45b505b50505f90815260046020526040902080546001600160a01b0319166001600160a01b0392909216919091179055565b610ccb838383610d3b565b610441576001600160a01b038316610cf957604051637e27328960e01b8152600481018290526024016103be565b60405163177e802f60e01b81526001600160a01b0383166004820152602481018290526044016103be565b610d2e8383610d9f565b610441335f858585610a94565b5f6001600160a01b03831615801590610d975750826001600160a01b0316846001600160a01b03161480610d745750610d748484610720565b80610d9757505f828152600460205260409020546001600160a01b038481169116145b949350505050565b6001600160a01b038216610dc857604051633250574960e11b81525f60048201526024016103be565b5f610dd483835f61081e565b90506001600160a01b03811615610441576040516339e3563760e11b81525f60048201526024016103be565b6001600160e01b031981168114610787575f5ffd5b5f60208284031215610e25575f5ffd5b8135610e3081610e00565b9392505050565b5f81518084528060208401602086015e5f602082860101526020601f19601f83011685010191505092915050565b602081525f610e306020830184610e37565b5f60208284031215610e87575f5ffd5b5035919050565b80356001600160a01b0381168114610ea4575f5ffd5b919050565b5f5f60408385031215610eba575f5ffd5b610ec383610e8e565b946020939093013593505050565b5f5f5f60608486031215610ee3575f5ffd5b610eec84610e8e565b9250610efa60208501610e8e565b929592945050506040919091013590565b5f60208284031215610f1b575f5ffd5b610e3082610e8e565b5f5f60408385031215610f35575f5ffd5b610f3e83610e8e565b915060208301358015158114610f52575f5ffd5b809150509250929050565b634e487b7160e01b5f52604160045260245ffd5b5f5f5f5f60808587031215610f84575f5ffd5b610f8d85610e8e565b9350610f9b60208601610e8e565b925060408501359150606085013567ffffffffffffffff811115610fbd575f5ffd5b8501601f81018713610fcd575f5ffd5b803567ffffffffffffffff811115610fe757610fe7610f5d565b604051601f8201601f19908116603f0116810167ffffffffffffffff8111828210171561101657611016610f5d565b60405281815282820160200189101561102d575f5ffd5b816020840160208301375f6020838301015280935050505092959194509250565b5f5f6040838503121561105f575f5ffd5b61106883610e8e565b915061107660208401610e8e565b90509250929050565b600181811c9082168061109357607f821691505b6020821081036110b157634e487b7160e01b5f52602260045260245ffd5b50919050565b808201808211156102ce57634e487b7160e01b5f52601160045260245ffd5b601f82111561044157805f5260205f20601f840160051c810160208510156110fb5750805b601f840160051c820191505b81811015610bb5575f8155600101611107565b815167ffffffffffffffff81111561113457611134610f5d565b61114881611142845461107f565b846110d6565b6020601f82116001811461117a575f83156111635750848201515b5f19600385901b1c1916600184901b178455610bb5565b5f84815260208120601f198516915b828110156111a95787850151825560209485019460019092019101611189565b50848210156111c657868401515f19600387901b60f8161c191681555b50505050600190811b01905550565b6001600160a01b03858116825284166020820152604081018390526080606082018190525f9061120790830184610e37565b9695505050505050565b5f60208284031215611221575f5ffd5b8151610e3081610e0056fea264697066735822122074d1e4d24509c00c4d0a6d3b529834ed73d5af62175b9918882667d6e310593364736f6c634300081c0033608060405234801561000f575f5ffd5b5060405161171638038061171683398101604081905261002e9161018c565b3384845f61003c83826102a9565b50600161004982826102a9565b5050506001600160a01b03811661007957604051631e4fbdf760e01b81525f600482015260240160405180910390fd5b6100828161009e565b506008829055600a61009482826102a9565b5050505050610363565b600780546001600160a01b038381166001600160a01b0319831681179093556040519116919082907f8be0079c531659141344cd1fd0a4f28419497f9722a3daafe3b4186f6b6457e0905f90a35050565b634e487b7160e01b5f52604160045260245ffd5b5f82601f830112610112575f5ffd5b81516001600160401b0381111561012b5761012b6100ef565b604051601f8201601f19908116603f011681016001600160401b0381118282101715610159576101596100ef565b604052818152838201602001851015610170575f5ffd5b8160208501602083015e5f918101602001919091529392505050565b5f5f5f5f6080858703121561019f575f5ffd5b84516001600160401b038111156101b4575f5ffd5b6101c087828801610103565b602087015190955090506001600160401b038111156101dd575f5ffd5b6101e987828801610103565b60408701516060880151919550935090506001600160401b0381111561020d575f5ffd5b61021987828801610103565b91505092959194509250565b600181811c9082168061023957607f821691505b60208210810361025757634e487b7160e01b5f52602260045260245ffd5b50919050565b601f8211156102a457805f5260205f20601f840160051c810160208510156102825750805b601f840160051c820191505b818110156102a1575f815560010161028e565b50505b505050565b81516001600160401b038111156102c2576102c26100ef565b6102d6816102d08454610225565b8461025d565b6020601f821160018114610308575f83156102f15750848201515b5f19600385901b1c1916600184901b1784556102a1565b5f84815260208120601f198516915b828110156103375787850151825560209485019460019092019101610317565b508482101561035457868401515f19600387901b60f8161c191681555b50505050600190811b01905550565b6113a6806103705f395ff3fe608060405234801561000f575f5ffd5b5060043610610127575f3560e01c806370a08231116100a9578063b88d4fde1161006e578063b88d4fde14610255578063c87b56dd14610268578063d5abeb011461027b578063e985e9c514610284578063f2fde38b14610297575f5ffd5b806370a082311461020e578063715018a6146102215780638da5cb5b1461022957806395d89b411461023a578063a22cb46514610242575f5ffd5b806323b872dd116100ef57806323b872dd146101ba57806342842e0e146101cd5780636352211e146101e05780636a627842146101f35780636c0360eb14610206575f5ffd5b806301ffc9a71461012b57806306fdde0314610153578063081812fc14610168578063095ea7b31461019357806318160ddd146101a8575b5f5ffd5b61013e610139366004610ebf565b6102aa565b60405190151581526020015b60405180910390f35b61015b6102d4565b60405161014a9190610f0f565b61017b610176366004610f21565b610363565b6040516001600160a01b03909116815260200161014a565b6101a66101a1366004610f53565b61038a565b005b6009545b60405190815260200161014a565b6101a66101c8366004610f7b565b610399565b6101a66101db366004610f7b565b610427565b61017b6101ee366004610f21565b610446565b6101a6610201366004610fb5565b610450565b61015b6104f9565b6101ac61021c366004610fb5565b610585565b6101a66105ca565b6007546001600160a01b031661017b565b61015b6105dd565b6101a6610250366004610fce565b6105ec565b6101a661026336600461101b565b6105f7565b61015b610276366004610f21565b61060f565b6101ac60085481565b61013e6102923660046110f8565b610663565b6101a66102a5366004610fb5565b610690565b5f6001600160e01b03198216632483248360e11b14806102ce57506102ce826106cd565b92915050565b60605f80546102e290611129565b80601f016020809104026020016040519081016040528092919081815260200182805461030e90611129565b80156103595780601f1061033057610100808354040283529160200191610359565b820191905f5260205f20905b81548152906001019060200180831161033c57829003601f168201915b5050505050905090565b5f61036d8261071c565b505f828152600460205260409020546001600160a01b03166102ce565b610395828233610754565b5050565b6001600160a01b0382166103c757604051633250574960e11b81525f60048201526024015b60405180910390fd5b5f6103d3838333610761565b9050836001600160a01b0316816001600160a01b031614610421576040516364283d7b60e01b81526001600160a01b03808616600483015260248201849052821660448201526064016103be565b50505050565b61044183838360405180602001604052805f8152506105f7565b505050565b5f6102ce8261071c565b610458610853565b600854600954106104a05760405162461bcd60e51b815260206004820152601260248201527113585e081cdd5c1c1b1e481c995858da195960721b60448201526064016103be565b6009546104ad8282610880565b600160095f8282546104bf9190611161565b90915550610395905081600a6104d482610899565b6040516020016104e5929190611180565b604051602081830303815290604052610929565b600a805461050690611129565b80601f016020809104026020016040519081016040528092919081815260200182805461053290611129565b801561057d5780601f106105545761010080835404028352916020019161057d565b820191905f5260205f20905b81548152906001019060200180831161056057829003601f168201915b505050505081565b5f6001600160a01b0382166105af576040516322718ad960e21b81525f60048201526024016103be565b506001600160a01b03165f9081526003602052604090205490565b6105d2610853565b6105db5f610978565b565b6060600180546102e290611129565b6103953383836109c9565b610602848484610399565b6104213385858585610a67565b5f818152600260205260409020546060906001600160a01b0316610631575f5ffd5b600a61063c83610899565b60405160200161064d929190611180565b6040516020818303038152906040529050919050565b6001600160a01b039182165f90815260056020908152604080832093909416825291909152205460ff1690565b610698610853565b6001600160a01b0381166106c157604051631e4fbdf760e01b81525f60048201526024016103be565b6106ca81610978565b50565b5f6001600160e01b031982166380ac58cd60e01b14806106fd57506001600160e01b03198216635b5e139f60e01b145b806102ce57506301ffc9a760e01b6001600160e01b03198316146102ce565b5f818152600260205260408120546001600160a01b0316806102ce57604051637e27328960e01b8152600481018490526024016103be565b6104418383836001610b8f565b5f828152600260205260408120546001600160a01b039081169083161561078d5761078d818486610c93565b6001600160a01b038116156107c7576107a85f855f5f610b8f565b6001600160a01b0381165f90815260036020526040902080545f190190555b6001600160a01b038516156107f5576001600160a01b0385165f908152600360205260409020805460010190555b5f8481526002602052604080822080546001600160a01b0319166001600160a01b0389811691821790925591518793918516917fddf252ad1be2c89b69c2b068fc378daa952ba7f163c4a11628f55a4df523b3ef91a4949350505050565b6007546001600160a01b031633146105db5760405163118cdaa760e01b81523360048201526024016103be565b610395828260405180602001604052805f815250610cf7565b60605f6108a583610d0e565b60010190505f8167ffffffffffffffff8111156108c4576108c4611007565b6040519080825280601f01601f1916602001820160405280156108ee576020820181803683370190505b5090508181016020015b5f19016f181899199a1a9b1b9c1cb0b131b232b360811b600a86061a8153600a85049450846108f857509392505050565b5f828152600660205260409020610940828261125e565b506040518281527ff8e1a15aba9398e019f0b49df1a4fde98ee17ae345cb5f6b5e2c27f5033e8ce79060200160405180910390a15050565b600780546001600160a01b038381166001600160a01b0319831681179093556040519116919082907f8be0079c531659141344cd1fd0a4f28419497f9722a3daafe3b4186f6b6457e0905f90a35050565b6001600160a01b0382166109fb57604051630b61174360e31b81526001600160a01b03831660048201526024016103be565b6001600160a01b038381165f81815260056020908152604080832094871680845294825291829020805460ff191686151590811790915591519182527f17307eab39ab6107e8899845ad3d59bd9653f200f220920489ca2b5937696c31910160405180910390a3505050565b6001600160a01b0383163b15610b8857604051630a85bd0160e11b81526001600160a01b0384169063150b7a0290610aa9908890889087908790600401611319565b6020604051808303815f875af1925050508015610ae3575060408051601f3d908101601f19168201909252610ae091810190611355565b60015b610b4a573d808015610b10576040519150601f19603f3d011682016040523d82523d5f602084013e610b15565b606091505b5080515f03610b4257604051633250574960e11b81526001600160a01b03851660048201526024016103be565b805181602001fd5b6001600160e01b03198116630a85bd0160e11b14610b8657604051633250574960e11b81526001600160a01b03851660048201526024016103be565b505b5050505050565b8080610ba357506001600160a01b03821615155b15610c64575f610bb28461071c565b90506001600160a01b03831615801590610bde5750826001600160a01b0316816001600160a01b031614155b8015610bf15750610bef8184610663565b155b15610c1a5760405163a9fbf51f60e01b81526001600160a01b03841660048201526024016103be565b8115610c625783856001600160a01b0316826001600160a01b03167f8c5be1e5ebec7d5bd14f71427d1e84f3dd0314c0f7b2291e5b200ac8c7c3b92560405160405180910390a45b505b50505f90815260046020526040902080546001600160a01b0319166001600160a01b0392909216919091179055565b610c9e838383610de5565b610441576001600160a01b038316610ccc57604051637e27328960e01b8152600481018290526024016103be565b60405163177e802f60e01b81526001600160a01b0383166004820152602481018290526044016103be565b610d018383610e49565b610441335f858585610a67565b5f8072184f03e93ff9f4daa797ed6e38ed64bf6a1f0160401b8310610d4c5772184f03e93ff9f4daa797ed6e38ed64bf6a1f0160401b830492506040015b6d04ee2d6d415b85acef81000000008310610d78576d04ee2d6d415b85acef8100000000830492506020015b662386f26fc100008310610d9657662386f26fc10000830492506010015b6305f5e1008310610dae576305f5e100830492506008015b6127108310610dc257612710830492506004015b60648310610dd4576064830492506002015b600a83106102ce5760010192915050565b5f6001600160a01b03831615801590610e415750826001600160a01b0316846001600160a01b03161480610e1e5750610e1e8484610663565b80610e4157505f828152600460205260409020546001600160a01b038481169116145b949350505050565b6001600160a01b038216610e7257604051633250574960e11b81525f60048201526024016103be565b5f610e7e83835f610761565b90506001600160a01b03811615610441576040516339e3563760e11b81525f60048201526024016103be565b6001600160e01b0319811681146106ca575f5ffd5b5f60208284031215610ecf575f5ffd5b8135610eda81610eaa565b9392505050565b5f81518084528060208401602086015e5f602082860101526020601f19601f83011685010191505092915050565b602081525f610eda6020830184610ee1565b5f60208284031215610f31575f5ffd5b5035919050565b80356001600160a01b0381168114610f4e575f5ffd5b919050565b5f5f60408385031215610f64575f5ffd5b610f6d83610f38565b946020939093013593505050565b5f5f5f60608486031215610f8d575f5ffd5b610f9684610f38565b9250610fa460208501610f38565b929592945050506040919091013590565b5f60208284031215610fc5575f5ffd5b610eda82610f38565b5f5f60408385031215610fdf575f5ffd5b610fe883610f38565b915060208301358015158114610ffc575f5ffd5b809150509250929050565b634e487b7160e01b5f52604160045260245ffd5b5f5f5f5f6080858703121561102e575f5ffd5b61103785610f38565b935061104560208601610f38565b925060408501359150606085013567ffffffffffffffff811115611067575f5ffd5b8501601f81018713611077575f5ffd5b803567ffffffffffffffff81111561109157611091611007565b604051601f8201601f19908116603f0116810167ffffffffffffffff811182821017156110c0576110c0611007565b6040528181528282016020018910156110d7575f5ffd5b816020840160208301375f6020838301015280935050505092959194509250565b5f5f60408385031215611109575f5ffd5b61111283610f38565b915061112060208401610f38565b90509250929050565b600181811c9082168061113d57607f821691505b60208210810361115b57634e487b7160e01b5f52602260045260245ffd5b50919050565b808201808211156102ce57634e487b7160e01b5f52601160045260245ffd5b5f5f845461118d81611129565b6001821680156111a457600181146111b9576111e6565b60ff19831686528115158202860193506111e6565b875f5260205f205f5b838110156111de578154888201526001909101906020016111c2565b505081860193505b505050602f60f81b815283518060208601600184015e64173539b7b760d91b91016001810191825260060195945050505050565b601f82111561044157805f5260205f20601f840160051c8101602085101561123f5750805b601f840160051c820191505b81811015610b88575f815560010161124b565b815167ffffffffffffffff81111561127857611278611007565b61128c816112868454611129565b8461121a565b6020601f8211600181146112be575f83156112a75750848201515b5f19600385901b1c1916600184901b178455610b88565b5f84815260208120601f198516915b828110156112ed57878501518255602094850194600190920191016112cd565b508482101561130a57868401515f19600387901b60f8161c191681555b50505050600190811b01905550565b6001600160a01b03858116825284166020820152604081018390526080606082018190525f9061134b90830184610ee1565b9695505050505050565b5f60208284031215611365575f5ffd5b8151610eda81610eaa56fea26469706673582212206ebe53db1348baa6c8d6a387e59f9d0ea51cba0a262e40a43e81db8b3c7a2db664736f6c634300081c0033a2646970667358221220d3cafc7424787635effdb41d8ac9bde5338f0612892ec188a65b2c09c9ff88e464736f6c634300081c0033","linkReferences":{}},"methodIdentifiers":{"bidOnAuction(address,uint256)":"0890b90c","cancelOrder(address,uint256)":"6a206137","createAuction(address,uint256,uint256)":"abb94051","createNFT(bool,address,string,string,uint256,string)":"cfc1f917","createOrder(address,uint256,uint256,uint256)":"6f652e1a","endAuction(address,uint256)":"88cedbc4","executeOrder(address,uint256)":"dc3528d6","nftAuctions(address,uint256)":"7dc409b5","nftOrders(address,uint256)":"d76ec2b7","owner()":"8da5cb5b","ownerCutPerMillion()":"a01f79d4","paused()":"5c975abb","publicationFeeInWei()":"ae4f1198","renounceOwnership()":"715018a6","setPublicationFee(uint256)":"af8996f1","transferOwnership(address)":"f2fde38b","withdrawBid(address,uint256)":"4cb8ef5b"},"id":44}